:020000040800F2
:1000000000000220E9100008351100083511000831
:1000100035110008351100083511000800000000F6
:10002000000000000000000000000000052600089D
:10003000351100080000000001260008FD25000819
:100040003511000835110008351100083511000878
:100050003511000835110008351100083511000868
:100060003511000835110008351100083511000858
:100070003511000835110008351100083511000848
:100080003511000835110008351100083511000838
:100090003511000835110008351100083511000828
:1000A0003511000835110008351100083511000818
:1000B000ED2500083511000835110008351100083C
:1000C00035110008351100083511000835110008F8
:1000D00035110008351100083511000835110008E8
:1000E00035110008351100083511000835110008D8
:1000F00035110008351100083511000835110008C8
:1001000035110008351100083511000835110008B7
:1001100035110008351100083511000835110008A7
:100120003511000835110008351100083511000897
:100130003511000835110008351100083511000887
:100140003511000835110008351100083511000877
:100150003511000835110008351100083511000867
:100160003511000835110008351100083511000857
:100170003511000835110008351100083511000847
:080180003511000835110008DB
:1001C00010B5054C237833B9044B13B10448AFF391
:1001D00000800123237010BDB00900200000000042
:1001E0004887000808B5034B1BB103490348AFF328
:1001F000008008BD00000000B40900204887000806
:1002000053B94AB9002908BF00281CBF4FF0FF317D
:100210004FF0FF3000F074B9ADF1080C6DE904CE79
:1002200000F006F8DDF804E0DDE9022304B07047D1
:100230002DE9F047089D04468E46002B4DD18A4299
:10024000944669D9B2FA82F252B101FA02F3C2F1CC
:10025000200120FA01F10CFA02FC41EA030E94405D
:100260004FEA1C48210CBEFBF8F61FFA8CF708FB7E
:1002700016E341EA034306FB07F199420AD91CEB56
:10028000030306F1FF3080F01F81994240F21C8188
:10029000023E63445B1AA4B2B3FBF8F008FB1033D0
:1002A00044EA034400FB07F7A7420AD91CEB040405
:1002B00000F1FF3380F00A81A74240F207816444D5
:1002C000023840EA0640E41B00261DB1D44000235A
:1002D000C5E900433146BDE8F0878B4209D9002DBE
:1002E00000F0EF800026C5E9000130463146BDE848
:1002F000F087B3FA83F6002E4AD18B4202D38242B2
:1003000000F2F980841A61EB030301209E46002D60
:10031000E0D0C5E9004EDDE702B9FFDEB2FA82F2B5
:10032000002A40F09280A1EB0C014FEA1C471FFA13
:100330008CFE0126200CB1FBF7F307FB131140EAFA
:1003400001410EFB03F0884208D91CEB010103F1C7
:10035000FF3802D2884200F2CB804346091AA4B289
:10036000B1FBF7F007FB101144EA01440EFB00FE5D
:10037000A64508D91CEB040400F1FF3102D2A645C2
:1003800000F2BB800846A4EB0E0440EA03409CE761
:10039000C6F12007B34022FA07FC4CEA030C20FA0E
:1003A00007F401FA06F31C43F9404FEA1C4900FA2E
:1003B00006F3B1FBF9F8200C1FFA8CFE09FB1811AB
:1003C00040EA014108FB0EF0884202FA06F20BD91E
:1003D0001CEB010108F1FF3A80F08880884240F26E
:1003E0008580A8F102086144091AA4B2B1FBF9F0B2
:1003F00009FB101144EA014100FB0EFE8E4508D9AD
:100400001CEB010100F1FF346CD28E456AD9023831
:10041000614440EA0840A0FB0294A1EB0E01A14216
:10042000C846A64656D353D05DB1B3EB080261EB84
:100430000E0101FA07F722FA06F3F1401F43C5E95E
:10044000007100263146BDE8F087C2F12003D84094
:100450000CFA02FC21FA03F3914001434FEA1C47D6
:100460001FFA8CFEB3FBF7F007FB10360B0C43EAC8
:10047000064300FB0EF69E4204FA02F408D91CEB78
:10048000030300F1FF382FD29E422DD90238634476
:100490009B1B89B2B3FBF7F607FB163341EA034116
:1004A00006FB0EF38B4208D91CEB010106F1FF3865
:1004B00016D28B4214D9023E6144C91A46EA00465C
:1004C00038E72E46284605E70646E3E61846F8E6EE
:1004D0004B45A9D2B9EB020864EB0C0E0138A3E737
:1004E0004646EAE7204694E74046D1E7D0467BE718
:1004F000023B614432E7304609E76444023842E790
:10050000704700BF844641EA000313F003036DD136
:10051000403A41D351F8043B40F8043B51F8043BC6
:1005200040F8043B51F8043B40F8043B51F8043BCD
:1005300040F8043B51F8043B40F8043B51F8043BBD
:1005400040F8043B51F8043B40F8043B51F8043BAD
:1005500040F8043B51F8043B40F8043B51F8043B9D
:1005600040F8043B51F8043B40F8043B51F8043B8D
:1005700040F8043B51F8043B40F8043B51F8043B7D
:1005800040F8043B51F8043B40F8043B51F8043B6D
:1005900040F8043B403ABDD2303211D351F8043B0D
:1005A00040F8043B51F8043B40F8043B51F8043B4D
:1005B00040F8043B51F8043B40F8043B103AEDD2BC
:1005C0000C3205D351F8043B40F8043B043AF9D20D
:1005D000043208D0D2071CBF11F8013B00F8013BE0
:1005E00001D30B8803806046704700BF082A13D3ED
:1005F0008B078DD010F003038AD0C3F10403D21A05
:10060000DB071CBF11F8013B00F8013B80D331F838
:10061000023B20F8023B7BE7043AD9D3013A11F8B8
:10062000013B00F8013BF9D20B7803704B78437023
:100630008B78837060467047000000000000000067
:1006400090F800F06DE9024520F007016FF0000C12
:1006500010F0070491F820F040F049804FF00004BA
:100660006FF00700D1E9002391F840F000F1080095
:1006700082FA4CF2A4FA8CF283FA4CF3A2FA8CF3CD
:100680004BBBD1E9022382FA4CF200F10800A4FA34
:100690008CF283FA4CF3A2FA8CF3E3B9D1E9042388
:1006A00082FA4CF200F10800A4FA8CF283FA4CF3BF
:1006B000A2FA8CF37BB9D1E9062301F1200182FA79
:1006C0004CF200F10800A4FA8CF283FA4CF3A2FA7F
:1006D0008CF3002BC6D0002A04BF04301A4612BA8D
:1006E000B2FA82F2FDE8024500EBD2007047D1E990
:1006F000002304F00305C4F100004FEAC50514F01F
:10070000040F91F840F00CFA05F562EA05021CBFEF
:1007100063EA050362464FF00004A9E70000000009
:1007200001F0FF01102A2BDB10F0070F08D010F8A2
:10073000013B013A8B422DD010F0070F42B3F6D1A6
:10074000F0B441EA012141EA014122F007047FF0BF
:1007500000070023F0E80256083C85EA010586EA16
:10076000010685FA47F5A3FA87F586FA47F6A5FA52
:1007700087F68EB9EED1F0BC01F0FF0102F007025E
:1007800032B110F8013B013A83EA010313B1F8D109
:100790000020704701387047002D06BF35460338EA
:1007A000073815F0010F07D1013015F4807F02BF23
:1007B000013015F4C03F0130F0BC0138704700BF74
:1007C00081F0004102E000BF83F0004330B54FEA02
:1007D00041044FEA430594EA050F08BF90EA020F6F
:1007E0001FBF54EA000C55EA020C7FEA645C7FEA02
:1007F000655C00F0E2804FEA5454D4EB5555B8BF25
:100800006D420CDD2C4480EA020281EA030382EA95
:10081000000083EA010180EA020281EA0303362D27
:1008200088BF30BD11F0004F4FEA01314FF4801CFA
:100830004CEA113102D0404261EB410113F0004F0C
:100840004FEA03334CEA133302D0524263EB4303C3
:1008500094EA050F00F0A780A4F10104D5F1200E61
:100860000DDB02FA0EFC22FA05F2801841F10001BC
:1008700003FA0EF2801843FA05F359410EE0A5F190
:1008800020050EF1200E012A03FA0EFC28BF4CF0C1
:10089000020C43FA05F3C01851EBE37101F0004577
:1008A00007D54FF0000EDCF1000C7EEB00006EEB84
:1008B0000101B1F5801F1BD3B1F5001F0CD349080E
:1008C0005FEA30004FEA3C0C04F101044FEA445265
:1008D00012F5800F80F09A80BCF1004F08BF5FEAEC
:1008E000500C50F1000041EB045141EA050130BDCC
:1008F0005FEA4C0C404141EB0101013C28BFB1F5DE
:10090000801FE9D291F0000F04BF01460020B1FA28
:1009100081F308BF2033A3F10B03B3F120020CDAFB
:100920000C3208DD02F1140CC2F10C0201FA0CF0D9
:1009300021FA02F10CE002F11402D8BFC2F1200C3E
:1009400001FA02F120FA0CFCDCBF41EA0C019040F4
:10095000E41AA2BF01EB0451294330BD6FEA04043D
:100960001F3C1CDA0C340EDC04F11404C4F1200228
:1009700020FA04F001FA02F340EA030021FA04F33A
:1009800045EA030130BDC4F10C04C4F1200220FA91
:1009900002F001FA04F340EA0300294630BD21FACF
:1009A00004F0294630BD94F0000F83F4801306BF95
:1009B00081F480110134013D4EE77FEA645C18BF89
:1009C0007FEA655C29D094EA050F08BF90EA020F20
:1009D00005D054EA000C04BF1946104630BD91EA18
:1009E000030F1EBF0021002030BD5FEA545C05D11B
:1009F0004000494128BF41F0004130BD14F580045A
:100A00003CBF01F5801130BD01F0004545F0FE41CD
:100A100041F470014FF0000030BD7FEA645C1ABF02
:100A2000194610467FEA655C1CBF0B46024650EA39
:100A3000013406BF52EA033591EA030F41F4002165
:100A400030BD00BF90F0000F04BF0021704730B5EB
:100A50004FF4806404F132044FF000054FF00001C0
:100A600050E700BF90F0000F04BF0021704730B581
:100A70004FF4806404F1320410F0004548BF404256
:100A80004FF000013EE700BF42004FEAE2014FEAAB
:100A900031014FEA02701FBF12F07F4393F07F4F86
:100AA00081F06051704732F07F4208BF704793F089
:100AB0007F4F04BF41F40021704730B54FF460749C
:100AC00001F0004521F000411CE700BF50EA01029F
:100AD00008BF704730B54FF000050AE050EA010248
:100AE00008BF704730B511F0004502D5404261EBB8
:100AF00041014FF4806404F132045FEA915C3FF4F9
:100B0000D8AE4FF003025FEADC0C18BF03325FEA95
:100B1000DC0C18BF033202EBDC02C2F1200300FA46
:100B200003FC20FA02F001FA03FE40EA0E0021FA6B
:100B300002F11444BDE600BF70B54FF0FF0C4CF459
:100B4000E06C1CEA11541DBF1CEA135594EA0C0F0B
:100B500095EA0C0F00F0DEF82C4481EA030621EA46
:100B60004C5123EA4C5350EA013518BF52EA033581
:100B700041F4801143F4801338D0A0FB02CE4FF033
:100B80000005E1FB02E506F00042E0FB03E54FF063
:100B90000006E1FB03569CF0000F18BF4EF0010E5B
:100BA000A4F1FF04B6F5007F64F5407404D25FEA57
:100BB0004E0E6D4146EB060642EAC62141EA55510A
:100BC0004FEAC52040EA5E504FEACE2EB4F1FD0C4C
:100BD00088BFBCF5E06F1ED8BEF1004F08BF5FEACA
:100BE000500E50F1000041EB045170BD06F000467C
:100BF00046EA010140EA020081EA0301B4EB5C0429
:100C0000C2BFD4EB0C0541EA045170BD41F4801120
:100C10004FF0000E013C00F3AB8014F1360FDEBF45
:100C2000002001F0004170BDC4F10004203C35DA21
:100C30000C341BDC04F11404C4F1200500FA05F3A4
:100C400020FA04F001FA05F240EA020001F0004245
:100C500021F0004110EBD37021FA04F642EB0601BB
:100C60005EEA430E08BF20EAD37070BDC4F10C04E5
:100C7000C4F1200500FA04F320FA05F001FA04F2A9
:100C800040EA020001F0004110EBD37041F1000195
:100C90005EEA430E08BF20EAD37070BDC4F12005A0
:100CA00000FA05F24EEA020E20FA04F301FA05F208
:100CB00043EA020321FA04F001F0004121FA04F2B0
:100CC00020EA020000EBD3705EEA430E08BF20EA80
:100CD000D37070BD94F0000F0FD101F000464000BA
:100CE00041EB010111F4801F08BF013CF7D041EA3C
:100CF000060195F0000F18BF704703F00046520040
:100D000043EB030313F4801F08BF013DF7D043EA10
:100D10000603704794EA0C0F0CEA135518BF95EAC6
:100D20000C0F0CD050EA410618BF52EA4306D1D14D
:100D300081EA030101F000414FF0000070BD50EA6C
:100D4000410606BF1046194652EA430619D094EAF6
:100D50000C0F02D150EA013613D195EA0C0F05D1E0
:100D600052EA03361CBF104619460AD181EA030134
:100D700001F0004141F0FE4141F470014FF00000EC
:100D800070BD41F0FE4141F4780170BD70B54FF087
:100D9000FF0C4CF4E06C1CEA11541DBF1CEA135507
:100DA00094EA0C0F95EA0C0F00F0A7F8A4EB0504E9
:100DB00081EA030E52EA03354FEA013100F08880E0
:100DC0004FEA03334FF0805545EA131343EA1263A9
:100DD0004FEA022245EA111545EA10654FEA00265E
:100DE0000EF000419D4208BF964244F1FD0404F517
:100DF000407402D25B084FEA3202B61A65EB030573
:100E00005B084FEA32024FF480104FF4002CB6EB2F
:100E1000020E75EB030E22BFB61A754640EA0C00AF
:100E20005B084FEA3202B6EB020E75EB030E22BFEF
:100E3000B61A754640EA5C005B084FEA3202B6EB30
:100E4000020E75EB030E22BFB61A754640EA9C00EF
:100E50005B084FEA3202B6EB020E75EB030E22BFBF
:100E6000B61A754640EADC0055EA060E18D04FEA7D
:100E7000051545EA16754FEA06164FEAC30343EA1D
:100E800052734FEAC2025FEA1C1CC0D111F4801FEA
:100E90000BD141EA00014FF000004FF0004CB6E7E3
:100EA00011F4801F04BF01430020B4F1FD0C88BF82
:100EB000BCF5E06F3FF6AFAEB5EB030C04BFB6EB8D
:100EC000020C5FEA500C50F1000041EB045170BD80
:100ED0000EF0004E4EEA113114EB5C04C2BFD4EBAD
:100EE0000C0541EA045170BD41F480114FF0000E31
:100EF000013C90E645EA060E8DE60CEA135594EAAD
:100F00000C0F08BF95EA0C0F3FF43BAF94EA0C0FAF
:100F10000AD150EA01347FF434AF95EA0C0F7FF424
:100F200025AF104619462CE795EA0C0F06D152EA78
:100F300003353FF4FDAE1046194622E750EA41065C
:100F400018BF52EA43067FF4C5AE50EA41047FF46D
:100F50000DAF52EA43057FF4EBAE12E74FF0FF3CD2
:100F600006E000BF4FF0010C02E000BF4FF0010CA3
:100F70004DF804CD4FEA410C7FEA6C5C4FEA430C1C
:100F800018BF7FEA6C5C1BD001B050EA410C0CBF6B
:100F900052EA430C91EA030F02BF90EA020F0020CD
:100FA000704710F1000F91EA030F58BF994208BF34
:100FB00090422CBFD8176FEAE37040F001007047F1
:100FC0004FEA410C7FEA6C5C02D150EA013C07D148
:100FD0004FEA430C7FEA6C5CD6D152EA033CD3D093
:100FE0005DF8040B704700BF8446104662468C468D
:100FF0001946634600E000BF01B5FFF7B7FF0028C0
:1010000048BF10F1000F01BD4DF808EDFFF7F4FFE8
:101010000CBF012000205DF808FB00BF4DF808ED73
:10102000FFF7EAFF34BF012000205DF808FB00BF96
:101030004DF808EDFFF7E0FF94BF012000205DF8B8
:1010400008FB00BF4DF808EDFFF7CEFF94BF01206D
:1010500000205DF808FB00BF4DF808EDFFF7C4FF66
:1010600034BF012000205DF808FB00BF4FEA410CAF
:101070007FEA6C5C02D150EA013C0AD14FEA430C92
:101080007FEA6C5C02D152EA033C02D14FF00000CF
:1010900070474FF0010070474FEA410212F500120D
:1010A00015D211D56FF47873B3EB625212D94FEAAF
:1010B000C12343F0004343EA505311F0004F23FA99
:1010C00002F018BF404270474FF00000704750EAEE
:1010D000013005D111F0004008BF6FF000407047AB
:1010E0004FF00000704700BFDFF830D0002103E070
:1010F0000B4B5B58435004310A480B4B42189A4241
:10110000F6D30A4A02E0002342F8043B084B9A4215
:10111000F9D300F00FF800F0E5F8FEE70000022038
:10112000E48F000800000020B0090020B009002072
:1011300078100020FEE70000014801F0EFBD00BF7D
:1011400004880008074A084B11680848013101FB70
:1011500003F3B0EBF30F116000D27047044801F0C5
:101160007BBD00BFCC090020D578E9263789410036
:10117000208800080000000070B51548154D164C79
:10118000164E8AB001F0CAFD4FF0FF334FF0FF3228
:10119000284600F0C3FD0346204683B901F0BEFD9A
:1011A0009FED097B02A98DED007B2022304600F0E7
:1011B000B1FF002802A90A4801DD01F04DFD4FF4FE
:1011C000FA6000F0F3FCDFE7FFFFFFFFFFFFFFFF28
:1011D0003C880008E80B002050880008480A0020DE
:1011E0006888000870B51448144C154E154D01F070
:1011F00095FD0BE0144800F0CDFD034613480BB9F4
:1012000001F08CFD4FF4FA7000F0D0FC4FF0FF328B
:101210004FF0FF33204600F01FFE0028EAD1304691
:1012200001F07CFD322000F0C1FC204600F07CFE85
:10123000284601F073FDDDE784880008D00900200E
:1012400098880008B0880008E80B0020C8880008CB
:101250002DE970431C481D4D1D4E88B001F05EFD08
:101260004FF0FF384FF0FF3918E01A4C0FCC0DF15A
:101270000C0CCDE90089ACE80F0023688CF8003035
:101280001548112203A900F0C9FE034613480BB903
:1012900001F044FD4FF47A7000F088FC4FF0FF320B
:1012A0004FF0FF33284600F0D7FD0028DDD130464F
:1012B00001F034FD642000F079FC284600F034FE93
:1012C000074801F02BFDD0E7E0880008D009002096
:1012D000F488000844890008480A0020248900088E
:1012E0000C89000810B56C489EB001F017FD00F0A5
:1012F0008DF90146694801F0AFFC694800F07AF9C0
:10130000684800F07DF900F033F9002840F0928041
:10131000654C664801F002FD0FCC0DF1240CACE8E1
:101320000F0094E807008CE80700614809A900F065
:10133000F3FA002876D15F4801F0F0FC04F10C0EBE
:10134000BEE80F000DF1400CACE80F009EE807006E
:101350008CE80700584810A900F0DEFA002873D185
:10136000564801F0DBFC04F1280EBEE80F000DF139
:101370005C0CACE80F009EE807008CE807005048C2
:1013800017A900F0C9FA002859D14E4801F0C6FC4F
:1013900004F1440393E8070003AB83E807004A48DD
:1013A000194600F093FC002853D1484801F0B6FCE0
:1013B000D4E9140101AB83E803004548194600F065
:1013C0001FFD00284FD14348583401F0A7FC94E892
:1013D000070006AB83E807003F4A4048194600F083
:1013E000E9FD002844D13E4801F098FC304800F067
:1013F000A5FA002832D1304800F0A0FA00283CD1EC
:101400002F4800F09BFA00283CD1364801F086FCBA
:1014100000F0D6F800283AD1334801F07FFC00F004
:10142000F9F8FCE70146314801F016FC4FF0FF30B7
:101430001EB010BD01462E4801F00EFCF6E7014635
:101440002C4801F009FCF1E701462B4801F004FCAF
:10145000ECE70146294801F0FFFBE7E70146284891
:1014600001F0FAFBE2E70146264801F0F5FBDDE773
:101470000146254801F0F0FBD8E70146234801F07A
:10148000EBFBD3E70146224801F0E6FBCEE701463D
:10149000204801F0E1FBC9E758890008808900086D
:1014A000391100084511000860870008AC89000860
:1014B000500C0020E4890008080D0020148A000860
:1014C000C00D0020448A0008E80B0020748A000840
:1014D000D0090020A88A0008E80A0020480A002055
:1014E000E08A0008508B0008888B0008C889000833
:1014F0008C890008288A0008F8890008588A0008A2
:10150000FC8A00088C8A0008C08A0008188B000832
:10151000348B00086C8B0008044A05491368002BC3
:1015200008BF0B461844106018467047780E00201C
:1015300078100020104670474FF0FF30704700BF12
:1015400000207047002070474FF400534B6000208C
:10155000704700BF01207047FEE700BF08B501F0EB
:1015600057F8162303604FF0FF3008BD0120704785
:1015700008B500F0D7FF00F001F900F0A1F900F084
:101580006FFA00F099FE00F08DFF01F03DF8094B75
:10159000094A0A490020C3E90000C3E90200C3E97F
:1015A0000400C2E90000C2E902004FF0010C81F81A
:1015B00000C008BD980E00207C0E0020940E002074
:1015C00010B50A4C2378012B0DD1094B1B6803B1D0
:1015D00098470223237000F079FE00F087FF00F0A7
:1015E0004DFA002010BD012010BD00BF940E002058
:1015F000900E0020014B1860704700BF900E002035
:10160000014B186000F0DABA8C0E002000487047D9
:10161000A08B00080A4B1B6810B503B19847094B13
:10162000D3E904149A68D868013144F10004013206
:1016300040F10000C3E90414C3E9022010BD00BF5B
:101640008C0E0020980E002028B370B50E4612496B
:101650000446002A18BF11460F221D4601F078FBF0
:1016600000230E4AE3730020002126746574636230
:10167000C4E90601516AA3620120206231B1936A74
:10168000A362936A62625C62946270BDC2E90944BB
:10169000C4E9092270BD7047C88B0008680F00209C
:1016A00098B191B1D0E90132934218D2C26872B1B7
:1016B00010B404690133C1E90924616291625DF8E3
:1016C000044B0161436000207047042070470133E0
:1016D000C0E90311C1E909114360002070470520EA
:1016E000704700BF38B100230022C0E90600C0E9FE
:1016F0000223002303607047C8B12DE9F0410E4674
:1017000091B10546202090461F4600F087FF044611
:1017100078B1EB690660C0E90287C0E906539C61B5
:101720000020EC61BDE8F0810420BDE8F0810420D8
:1017300070470320F6E700BFB0B1A9B108B58369CF
:10174000984203D10EE09B6998420BD01A688A42F6
:10175000F9D1D3E9062118468A61D16100F066FF0C
:10176000002008BD012008BD0420704728B183690E
:10177000834201D0186870470020704710B50B4CA9
:1017800030220021204601F009FAC4E90944002270
:10179000074B11461A700132092AC3E90111C3E946
:1017A000031103F11403F5D110BD00BF680F002031
:1017B000B00E002008289DBF034B00EB800003EB18
:1017C00080000020704700BFB00E002000B338B585
:1017D000104D04462868A04219D00F4B1B680BB16E
:1017E00021469847D4F890302C600222013384F8C7
:1017F0005420C4F8903000F0DFFD084A136801332C
:10180000C4E928011360BDE8384000F0FFBE38BDD0
:10181000704700BFA40F0020C40F0020C00F00209D
:1018200038B501230D460A6819460446FFF70CFF38
:10183000D5E90112EB686364C4E90C122B7C84F8CF
:10184000483084F849306A69002342F210719A42A4
:1018500008BF0A46C4E9132284F85430164A2D7E84
:1018600084F8555000200021C4E91E01C4E922017A
:10187000C4E92801C4E92433C4E92A22A365236604
:101880006366E36623676367C4F88030C4F8983002
:10189000E465A466012084F8B030C4F8B430FFF7E2
:1018A00089FF10B12146FFF7FBFE044A136801339C
:1018B0000020136038BD00BFEFBEADDEC80F0020B2
:1018C00070B40C490C4A0D480D4E0E4D0E4C0023C1
:1018D0000B6013600360C1E90111C2E901220B48EA
:1018E0000B490C4A33702B602360036070BC0B60A3
:1018F00013607047AC0F0020980F0020A40F002049
:10190000BC0F0020B80F0020C80F0020C00F00201F
:10191000C40F0020A80F002068B161B14A6852B11D
:10192000CA68A2F58072B2F57F4F04D80B7C1F2BDA
:1019300001D8FFF775BF0420704700BF70B40028BE
:101940004FD090F85440002C43D1D0E90C15836B54
:10195000426C002941D0002B3FD022F003021344F7
:101960004FF0123243F80C1C6FF0020143E90521DD
:101970004FF003364FF0023243E90726DFF870C01C
:101980001A494FF0013243F8202C4FF080761A4666
:1019900043E9026C012342F8245D80F854304B681F
:1019A00002648B420AD090F848C002E05B688B4228
:1019B00004D01A6892F848206245F7D99A684266BE
:1019C0009968036600F15C024A609A60204670BC28
:1019D00070470524204670BC70470023036401242F
:1019E000F4E70424204670BC704700BFAC0F002011
:1019F000EFBEADDE58B11F2909D890F85420034638
:101A0000012A90F8480083F8481002D0704710204F
:101A1000704730B4D3E91824626094600C4C002203
:101A2000C3E918226268A24203D107E05268A242C9
:101A300004D0156895F848C08C45F7D99168596667
:101A400094681A6603F15C01616030BC9160704774
:101A5000AC0F0020014B1868704700BFA40F002096
:101A600003480449044A002303700B601360704765
:101A7000BC0F0020B80F0020C00F0020064B1A78C2
:101A80004AB9064A516801209142187003D008688B
:101A900008B1FFF79BBE7047BC0F0020AC0F0020C1
:101AA0000D4B1B78B3B10D4B1B689BB90C4B5A689F
:101AB0009A420FD0106868B10A4B1B68984209D04F
:101AC00033B193F85420022A04BF012283F8542032
:101AD000FFF77CBE704700BFBC0F0020B80F00208E
:101AE000AC0F0020A40F002008B5064B1B6813B1F3
:101AF000054B1B780BB9012008BDFFF7D1FF002073
:101B000008BD00BFA40F0020BC0F00202DE9F0414C
:101B1000244FD7F80080B8F1000F33D050EA01030A
:101B200005460C4603D100242046BDE8F081202064
:101B300000F074FD064690B32A460025C0E905551D
:101B4000C0F8108023460570C561C8F8800000F019
:101B5000D1FB0446D0B93B68134AD3E918100325DA
:101B600083F8545041608860906803F16801C3E9CC
:101B70001B20C3E9184441609160FFF791FF2046A4
:101B8000BDE8F08101242046BDE8F081304600F038
:101B90004DFD3B682046C3F88050BDE8F08103242A
:101BA000C2E700BFA40F0020980F00200249A0FB4D
:101BB0000101FFF7ABBF00BF40420F00014B1860AF
:101BC000704700BFA80F002000283CD010B590F847
:101BD0005430032B044631D1D0F8800020B100F0FE
:101BE00025FD0023C4F88030D4E91B214A609160B0
:101BF00015490023C4E91B334B6801208B4284F84C
:101C000054000AD094F8480002E05B688B4204D08C
:101C10001A6892F848208242F7D999680B4A61669F
:101C200098681168236604F15C0242609A6029B1E9
:101C300094F8482091F848309A4200D310BDBDE88E
:101C40001040FFF72DBF7047AC0F0020A40F0020FD
:101C50000B4B1B789BB10B4B1B6883B90A4B1B6862
:101C60005BB10A4A5168914209D00A683AB192F8C8
:101C7000482093F848309A4201D2FFF711BF7047CD
:101C8000BC0F0020B80F0020A40F0020AC0F0020D4
:101C9000C8B10D494B6801228B4280F854200AD00C
:101CA00090F848C002E05B688B4204D01A6892F852
:101CB00048206245F7D99A6842669968036600F140
:101CC0005C024A609A607047AC0F002018B338B5C8
:101CD0000D46F1B1D1E901239A421AD80A680123CD
:101CE00002210446FFF7B0FCD5E9012304F13800D6
:101CF0000025C4E90C23FFF7F5FCC4E91655256659
:101D00000220FFF757FD18B12146FFF7C9FC28460E
:101D100038BD042038BD0420704700BF2DE9F041D4
:101D200058B390461F460446FFF794FE054660B33D
:101D3000236BCBB958EA070323D0014642463B4602
:101D400004F13800FFF7D8FC064698B9A36D0133BB
:101D5000A3650323C5E91D48EF6785F85430FFF7F5
:101D6000C3FE3046BDE8F081E26D013B01322363E2
:101D7000E26500263046BDE8F08104263046BDE825
:101D8000F08102263046BDE8F08101263046BDE8EC
:101D9000F08100BF88B3D0E90C32934270B504469D
:101DA00029D2026E816D013301320363026619B9D3
:101DB000FFF74EFF002070BD00F138063046FFF7F8
:101DC000D5FC05460028F3D001463046FFF7B4FCA9
:101DD000A36D0121013BA365002285F8541000206A
:101DE0000021C5E91E016A672846FFF751FFFFF78A
:101DF0002FFF0020DFE7052070BD0420704700BFE3
:101E000038B370B50E4611B304460A6801230321A6
:101E1000FFF71AFC41F210032386337984F83C3033
:101E2000002504F14000C4E90D55FFF75BFC0022DA
:101E30000023C4E91C23C4E91855A5660320FFF755
:101E4000B9FC18B12146FFF72BFC284670BD0420D1
:101E500070BD0420704700BF2DE9F041002840D03C
:101E6000174698460446FFF7F5FD054600283CD086
:101E7000666B864210D0002E3FD057EA080338D058
:101E800001463A46434604F14000FFF735FC06465A
:101E900080B13046BDE8F08194F83C30002B39D059
:101EA000A26B636E013201330026A2636366304683
:101EB000BDE8F081236E606B0133236628B195F88D
:101EC000481090F848308B4226D80323C5E91D47B7
:101ED000C5F87C8085F85430FFF706FE3046BDE833
:101EE000F08104263046BDE8F08101263046BDE889
:101EF000F08102263046BDE8F081636E6063012107
:101F000090F8482084F830200B4484F83120A163F5
:101F10006366BEE70626BCE7FFF76CFD95F8483020
:101F200084F83030D1E700BF00283FD0F8B5044630
:101F3000FFF790FD10B1626B824201D00120F8BD25
:101F4000A36B012B2BD8A36E00210133A163A366E1
:101F500094F8311092F848308B4201D0FFF74AFDD7
:101F6000236E002541F210026563228603B304F15B
:101F700040073846FFF7FAFB0646C8B10146384627
:101F8000FFF7DAFB236E0122013B236600200021CC
:101F900086F85420C6E91E0175672846F8BDA26E72
:101FA000013B0132A363A2660020F8BD0420704704
:101FB0000020F8BD80B3F8B50D4659B317464AB3B3
:101FC0004B683BB38B682BB30A680123042104469A
:101FD000FFF73AFBD5E901230026C4E90D2304F1FC
:101FE0004800C4E90F6627636664FFF77BFB04F1D2
:101FF0006800FFF777FBC4E92266C4E92466C4F8E9
:1020000098600420FFF7D6FB18B12146FFF748FB84
:102010003046F8BD0420F8BD042070472DE9F84390
:10202000DDE90887E8B18946D9B1436B934215468B
:10203000044616D3FFF70EFD064630B3D4E90E3240
:102040009A422DD358EA070321D0014642463B4627
:1020500004F14800FFF750FB054630B12846BDE8C3
:10206000F88304252846BDE8F883D4F88830013386
:10207000C4F888300323C6E91D48F76786F8543052
:10208000FFF732FD2846BDE8F8830125E6E7D4F8DE
:10209000983002250133C4F898302846BDE8F8830B
:1020A000236B206C666B2A46494606FB0030FEF720
:1020B00029FA04F138000BC8D4F890200133B3FB9F
:1020C000F0F500FB1533D4F88C0001310132C4E97E
:1020D0000F13C4F8902008B90025BFE704F1680584
:1020E0002846FFF743FB06460028F5D00146284660
:1020F000FFF722FBD4F88C300122013BC4F88C306E
:10210000002586F8542000230022C6E91E237567A7
:10211000A4E700BF2DE9F041DDE90676C0B18846AD
:10212000B1B1436B9342044612D8FFF793FC0546C6
:1021300008B3E36B23BB57EA06031ED001463A46B9
:10214000334604F16800FFF7D7FA20B1BDE8F0810B
:102150000420BDE8F081D4F88C300133C4F88C3011
:102160000323C5E91D4785F85430EE67FFF7BCFC33
:102170000120BDE8F0810120E8E70220BDE8F08100
:10218000626B236B616C404601FB0231FEF7BAF9CA
:10219000D4E90E01636CD4F894200133B3FBF0F55D
:1021A00000FB1533D4F88800636401390132E16320
:1021B000C4F8942008B9606BC8E704F148063046BB
:1021C000FFF7D4FA05460028F5D001463046FFF760
:1021D000B3FAD4F88830013BC4F8883000200021DD
:1021E00001220023C5E91E0185F854206B67E2E750
:1021F0002DE9F0411B4E3368FBB1D3E9024207469B
:102200008846A74278EB02024FF0000515D3D3E9C8
:10221000064222B3946104B1E2611A78012AC3E94B
:10222000065516D0022A14D04AB134B12346D3E958
:102230000242A74278EB0202E9D2BDE8F0811869B8
:102240000028F2D090F85430032BEED1FFF7BCFCFD
:10225000EBE75A69002AE8D018699047E5E734604F
:10226000D9E700BFD00F002070B5114E114D346872
:10227000CCB100F06BF9D4E90232984271EB020460
:1022800006D2181ABDE8704062EB010100F07CB97B
:102290002B7803B970BD00F059F9FFF7A9FF2B782F
:1022A000002BE4D1F6E7BDE8704000F085B900BF2F
:1022B000D00F0020CC0F0020024A034B00201060FA
:1022C00018707047D00F0020CC0F002038B5084D93
:1022D0002C780CB1012038BD01232B7000F036F9A9
:1022E00028780028F7D0FFF7BFFF204638BD00BF91
:1022F000CC0F0020002843D0F8B51C4652EA040356
:1023000015462ED0064600F021F92A18F069B36967
:1023100044EB0101C6E9022128B3DFF874C08361F0
:10232000B369DCF8007003B1D8610025C6E9065531
:102330003B4627B90CE09C691D461CB32346D3E9F4
:102340000240A24271EB0000F5D295B9B761FE617F
:10235000CCF800600D4B187810B1FFF785FF002016
:10236000F8BD0420F8BDDFF828C01F46CCF80030C7
:10237000D9E7AB69C6E9063503B1DE61AE61E9E7CD
:1023800004207047C6E90643F8E700BFCC0F0020E1
:10239000D00F002010B5074C237803B910BD00F012
:1023A000D5F8FFF725FF2378002BF7D0BDE81040C4
:1023B000FFF75ABFCC0F002000F0C8B80A4B10B589
:1023C0001C6874B100F0C2F8D4E90223904271EBAA
:1023D000030403D2101A63EB010110BD0120002198
:1023E00010BD2046214610BDD00F0020054B1B68B4
:1023F0002BB100209B690130002BFBD170471846A0
:10240000704700BFD00F00202DE9F047FFF7D6FF3F
:1024100050EA010333D006460C46FFF7E7FF0A28CF
:1024200031D81B4D1B4A4FF00008022898BF1546B3
:10243000194FD7E906A95AEA090311D000235046DB
:1024400049460A22FDF7DCFE854278EB010307D2FC
:10245000124A0023524573EB090324BF0546884600
:10246000B54278EB0403304621463CBF284641463E
:1024700000F08AF83B6A01333B62BDE8F087BDE8B3
:10248000F04700F099B8064D4FF00008D0E700BFC4
:1024900040420F0080969800F00F0020FF64CD1D91
:1024A000A086010070B50D4B0D4A0E4E0E4D002456
:1024B00000200021C6E90001C5E900011470214691
:1024C0002822184600F06AFB4FF0FF3103464FF018
:1024D000FF30C3E90201204670BD00BFF00F0020AD
:1024E000E80F0020D80F0020E00F0020034B1878E1
:1024F00010B901221A70704701207047E80F0020C0
:1025000010B5074C2378012B00D010BDFFF742FF18
:102510002378012BF9D1BDE81040FFF775BF00BF4C
:10252000E80F002005480649064A074B0B604FF0AC
:10253000020C80F800C013600020704729100020B2
:102540002C1000201C100020007A030A08B50A4B4A
:102550001A782AB909490A68012002430A601870EA
:10256000064B07485968074BA1FB00011A68002376
:10257000FDF746FE08BD00BF18100020001000E067
:1025800000CA9A3B1C10002050EA01030DD0084BF2
:102590001A780AB100221A70064A4FF0010CC2E9FB
:1025A000000183F800C0002070470420704700BF7E
:1025B0002810002020100020054B1A7832B1054A5F
:1025C00000200021C2E9000100221A70002070479B
:1025D0002810002020100020034B1A7802B9704701
:1025E00000221A70FFF75CBA2810002008B5FFF728
:1025F000F3FFBDE80840FFF783BF00BF704700BF8F
:10260000FFF74EBA704700BF704700BF704700BF6A
:10261000014B1868704700BF00000020024B0146C4
:10262000186800F00BB800BF00000020024B014604
:10263000186803F03BBC00BF000000202DE9F04FFC
:1026400001F10B06162E83B0044624D8102900F29F
:10265000BA8000F0F5FA102618220220B54F3A444D
:10266000A2F1080153688B4200F0BA805A68D96819
:1026700022F003021A449D68E9608D60516841F0C0
:1026800001012046516003F1080500F0DFFA2846F9
:1026900003B0BDE8F08F36F0070600F19480B14238
:1026A00000F2918000F0CCFAB6F5FC7FC0F09A8180
:1026B000730A00F08F80042B00F26F81B30903F1DD
:1026C000390003F1380CC3009A4F3B44A3F10805CD
:1026D0005B689D4206D10CE0002980F22781DB680F
:1026E0009D4206D05A6822F00302911B0F29F3DDA8
:1026F00060463D69DFF850C265457CD06A6822F0CB
:102700000302931B0F2B00F37B81002BC7E904CC42
:1027100080F26C81B2F5007F80F01A81D30879686D
:1027200001334FEA521E012202FA0EF20A4357F811
:1027300033E0C5F808E007EBC3010839E9607A60C7
:1027400047F83350CEF80C50831001219940914244
:1027500057D8114206D120F003004900114200F180
:102760000400FAD007EBC0094D468646D5F80C8028
:10277000454508D11DE1002B80F22481D8F80C805A
:10278000454500F01681D8F8042022F00302931B7F
:102790000F2BF0DD2046D8E9025408EB060146F085
:1027A0000106C8F80460EC60A56043F00104C7E9C5
:1027B0000411C1E902CC4C6048F8023000F046FA3E
:1027C00008F1080502E00C2323600025284603B029
:1027D000BDE8F08F4FF4007340204FF03F0C73E7DB
:1027E000D3689A4208BF02307FF440AF3D69DFF8FA
:1027F00058C1654582D17A68831001219940914280
:10280000A7D9BD686B6823F003094E4503D8A9EB2F
:1028100006030F2B7ADCDFF834B1474BDBF80020DE
:102820001B680132334405EB090A00F0338103F5DC
:1028300080530F3323F47F6828F00F084146204669
:1028400000F074FA411C024600F0F380824500F269
:10285000EE803A4B196841441960084600F04E81F9
:10286000DBF80010019301311BBFA2EB0A0A5044B0
:10287000CBF80020186012F0070B00F01781CBF1A5
:1028800008010A44CBF5805190440831A1EB0801BE
:10289000C1F30B0A51462046009200F047FA421C51
:1028A000DDE9002300F04F81801A00EB0A08196867
:1028B000BA6048F001005144BD425060196000F018
:1028C0002981B9F10F0F40F227816868A9F10C0C3A
:1028D0002CF0070C00F0010040EA0C0068604FF09B
:1028E000050E05EB0C00BCF10F0FC0E901EE00F284
:1028F000328150681546124B1A688A4238BF1960F7
:10290000104B1A688A4238BF196094E0AA1943F044
:10291000010346F001066E602046BA60536000F085
:1029200095F90835284603B0BDE8F08FD9681A44F8
:10293000A1E600BF3004002060100020301000200D
:10294000581000205C1000203804002038080020B7
:10295000B2F5206F4FEA522363D3142B00F2B780F5
:1029600003F15C01C9005B3307EB010E7958AEF14E
:10297000080E8E4500F091804B6823F003039342CC
:1029800002D989688E45F7D1D1F80CE07A68C5E99B
:10299000021ECEF80850CD60D6E6142B59D9542B20
:1029A00000F29D80330B03F16F0003F16E0CC30046
:1029B0008AE60EF1010E1EF0030F05F108057FF403
:1029C000D5AE51E0424445465368D8F80C1043F068
:1029D0000103536055F8083F2046D9608B6000F032
:1029E00035F9F3E6F00806F1080237E62A442046F6
:1029F000536843F001035360083500F027F9E5E61A
:102A0000A919204646F0010643F001046E60C7E9AB
:102A10000411C1E902CC4C60AB5000F017F9083545
:102A2000D4E6930903F13901C90038339CE7BD426C
:102A30005FD0BD68686820F003084645A8EB060330
:102A400002D80F2B3FF762AF204600F0FFF80025B9
:102A5000BCE603F15C0003F15B0CC30034E659F8FB
:102A600008394B4540F0968010F0030F00F1FF301D
:102A7000F5D17B6823EA01037B60490099423FF668
:102A8000C0AE19B9BDE649000EF1040E1942FAD0E4
:102A9000704667E603F11008D0E69A104FF001087F
:102AA0007B6808FA02F21A437A6070E702EB0801C9
:102AB0004942C1F30B0A51462046009200F036F914
:102AC000431CDDE900237FF4EFAEDA46EFE6542B3A
:102AD00025D8130B03F16F01C9006E3344E7B3F53A
:102AE000AA7F25D8F30B03F1780003F1770CC3001C
:102AF000EAE5294B186840441860B1E6CAF30B0CAC
:102B0000BCF1000F7FF4ACAEBD68C84448F00100D2
:102B10006860F0E61546EEE60123536094E7B3F5EE
:102B2000AA7F23D8D30B03F17801C90077331BE7C1
:102B300040F25452934223D8B30C03F17D0003F1C9
:102B40007C0CC300C0E5ABF1080BD844A8EB02082D
:102B50004FF0000AABE605F108012046009303F0B0
:102B6000A5F9BD68009B68681968C4E640F2545135
:102B70008B420BD8930C03F17D01C9007C33F3E643
:102B80004FF47E737F204FF07E0C9DE54FF47E71F5
:102B90007E23E9E67B6870E730100020830730B5BC
:102BA00048D0541E002A3FD0CAB2034601E0013C7F
:102BB0003AD303F8012B9D07F9D1032C2DD9CDB2BF
:102BC00045EA05250F2C45EA054536D9A4F1100242
:102BD00022F00F0C03F1200EE6444FEA121C03F121
:102BE000100242E9045542E9025510327245F8D10B
:102BF0000CF1010214F00C0F03EB021204F00F0CA5
:102C000013D0ACF1040323F003030433134442F85C
:102C1000045B9342FBD10CF003042CB1CAB21C44F8
:102C200003F8012B9C42FBD130BD64461346002CB7
:102C3000F4D1F9E703461446BFE71A46A446E0E795
:102C4000014803F0DDBB00BF68100020014803F01D
:102C5000D9BB00BF681000200FB400B5074983B08E
:102C600004AB086853F8042B8168019300F0A4F8C2
:102C700003B05DF804EB04B0704700BF0000002013
:102C800070B5054688B008460C46FDF7D9FC224EC3
:102C9000AA6B059001214318CDE9066104A8022121
:102CA00004940393AC680190029122B3636E13F015
:102CB000010FB4F90C309AB201D1980525D59104D1
:102CC00006D4626E43F4005322F40052A38162667C
:102CD000284601AA214603F0EFF9636E002814BFCD
:102CE0004FF0FF350A25DA0702D4A3899B0506D5E4
:102CF000284608B070BD284602F0E0FFD6E7A06D78
:102D000003F080FB284608B070BDA06D03F078FB8F
:102D1000B4F90C309AB2D2E7DC8A0008024B0146C3
:102D20001868FFF7ADBF00BF0000002038B5074DA1
:102D30000022044608462A60FEF7EEFB431C00D042
:102D400038BD2B68002BFBD0236038BD74100020E9
:102D500030B540EA0104A30701D1032A0FD8844605
:102D600001F1FF3E07E01EF8011F03F8011B541E8E
:102D7000C1B19C4622466346002AF4D130BD0B46C1
:102D80008446194653F8045BA5F1013424EA05048E
:102D900014F0803FE4D1043A032A4CF8045B19464E
:102DA000EFD8DDE76244002CE8D003F8011B934222
:102DB000FBD130BD000000002DE9F04F2DED0A8B56
:102DC000CFB01C460AEE101A91460AEE900A05464C
:102DD00003F00EFB0368139318460994FDF730FCCB
:102DE00012901DB1AB6B002B00F048821AEE102A36
:102DF000536EDB0740F14781B2F90C309AB296046A
:102E000009D41AEE101A43F400538B819AB24B6E18
:102E100023F400534B66150740F1CC801AEE103AAC
:102E20001B69002B00F0C68002F01A030A2B00F089
:102E3000D2804D469FED9C7B2B78002425AACDE9BE
:102E40002344CDE91544CDE917448DED107B1AEEEE
:102E5000909A0E942292904614940694002B00F0BF
:102E6000B081AB4604E01BF8013F002B00F0CD80A1
:102E7000252BF8D1BBEB050640F0CB809BF800304A
:102E8000002B00F09E8100234FF0FF329BF8017071
:102E90008DF86B3005930BF1010B04929A462B24AD
:102EA00020210BF1010BA7F120035A2B00F2008126
:102EB000DFE813F00A03FE00FE000503FE00FE003B
:102EC000FE006A00FE00FE0076029E02FE00810205
:102ED000A802FE00A3025B005B005B005B005B00DE
:102EE0005B005B005B005B00FE00FE00FE00FE007E
:102EF000FE00FE00FE008E01FE001602ED018E01B6
:102F00008E018E01FE00FE00FE00FE000003FE00AA
:102F1000FE004502FE00FE00FE002002FE00C2028E
:102F2000FE00FE009907FE00FE00FE00FE00FE000F
:102F3000FE00FE00FE008E01FE001602EF018E0173
:102F40008E018E01E602EF01E801FE00F302FE00B1
:102F500086024702D402E801FE0020027D007507C8
:102F6000FE00FE007907FE007D00A7F1300300227D
:102F70001BF8017B02EB820203EB4202A7F1300354
:102F8000092BF5D905928EE7484603F031FA4368DC
:102F900017931846FDF754FB18900646484603F071
:102FA00027FA836815932021002E40F0E9869BF8CC
:102FB000007076E71AEE101A1AEE900A1AEE105AFE
:102FC00001F002FD002841F02783AA8902F01A03CC
:102FD0000A2B7FF42EAF1AEE101AB1F90E30002B27
:102FE000FFF627AF4B6ED90702D4920541F15A8103
:102FF0001AEE101A1AEE900A23464A464FB0BDEC5C
:103000000A8BBDE8F04F01F09FBCBBEB050600F05A
:10301000D880249B33442493239B0133072BC8E996
:103020000056239305DC08F10808069B33440693F9
:1030300024E71AEE101A22AA484604F02DF990B996
:103040000DF19408F1E71AEE101A22AA484604F08E
:1030500023F9002800F0A680089B23B11AEE900AFD
:10306000194602F023FF1AEE102A536ED80740F1DA
:10307000FA8093895A0601F1D88206984FB0BDECC8
:103080000A8BBDE8F08FB2F90C309F059AB23FF57C
:10309000B6AE1AEE105AA86D03F0B2F9B5F90C30BD
:1030A0009AB2ACE6AFF30080000000000000000020
:1030B000002F00F0868000238DF8D4708DF86B30DF
:1030C0000122CDE90723039204930C930F930D93F0
:1030D00035AD1AF002020A9202D0039A023203922C
:1030E0001AF084020B9205D1059A0399561A002E04
:1030F00000F36883249C8BB1239B0DF16B02013399
:103100000134C8F80020072B4FF0010224942393C8
:10311000C8F8042000F39F8308F108080A9B83B1D4
:10312000239B1BAA01330234C8F80020072B4FF061
:10313000020224942393C8F8042000F3998308F131
:1031400008080B9B802B00F06A82049B079A9E1A4A
:10315000002E00F3AB821AF4807F40F00682079BBA
:10316000C8F804301C44239BC8F800500133072BD7
:103170002494239300F3198308F108081AF0040F2C
:1031800005D0059B039A9D1A002D00F38583DDE988
:10319000052303998A42ACBF9B185B180693002C49
:1031A0007FF451AF00232393089B1BB10899484635
:1031B00002F07CFE0DF194085D462B78002B7FF425
:1031C00050AE249B002B41F01B82002323934AE73F
:1031D000099B073323F00703B3EC027B8DED107BD3
:1031E000DDE91012099322F000430BEE101A0BEEEA
:1031F000903A4FF0FF32B0EE4B9AF0EE6B9AB74B2D
:1032000051EC190BFDF732FF002840F0E884B34B76
:1032100051EC190B4FF0FF32FDF70AFF002840F088
:10322000DE84DDE9100100220023FDF7F7FE00280F
:1032300040F067879DF86B30A94DAA4A2AF0800AB2
:103240000321472FC8BF154600220892039107911A
:1032500004920C920F920D92002B3FF43AAF039A16
:103260000132039235E7938999053FF503AF1AEED2
:10327000104A906D03F0C6F8A389FBE6284602F0D9
:103280001DFDB3E59BF800704AF0200A09E64AF0FC
:10329000100A1AF0200F099B00F04084073323F036
:1032A00007031A465B6852F8084B09921E46002B2A
:1032B000C0F24384049B013300F0BC822AF08003F7
:1032C000039354EA060340F0B782049B002B40F0BE
:1032D000B882DDF80CA00023049307934EAD1FE1E4
:1032E000099A002352F8041B8DF86B308DF8D41026
:1032F0000992E5E6099C54F8045B00268DF86B60A2
:10330000002D00F08F85049B5A1C00F051861A4650
:1033100031462846FDF704FA0890002801F02F8175
:10332000089B0496591B079121EAE1719DF86B30C7
:103330000994039108960C960F960D968CE74AF027
:10334000100A1AF0200600F0C983099B073323F006
:1033500007035E6853F8084B09932AF480630393CC
:10336000002300228DF86B20049A551C00F0C080C9
:10337000039921F0800A54EA060140F0B780002A40
:1033800040F00786002BA6D1039B13F0010307939F
:1033900000F0148430238DF837310DF23715BFE07B
:1033A000099B53F8042B0592002A80F2D583059AD5
:1033B0000993524205929BF800704AF0040A70E5A6
:1033C0001AF0200F40F0D1841AF0100F40F0E7857A
:1033D0001AF0400F40F0A9861AF4007F00F0DF8554
:1033E000099B069953F8042B099311705D46E4E696
:1033F0009BF800708DF86B4053E59BF800704AF025
:10340000800A4EE55A4612F8017B2A2F01F06F829E
:10341000A7F13003092B934698BF002201F2EC80FC
:103420001BF8017B02EB820203EB4202A7F130039F
:10343000092BF5D9049236E54AF010030393039B58
:1034400013F0200600F05983099B073323F007038C
:103450005E6853F8084B0993012382E7099B53F8F0
:10346000044B099330234AF0020278278DF86C3020
:103470001D4B149303928DF86D700026022370E7A4
:103480009BF80070682F03BF9BF801704AF4007A24
:103490000BF1010B4AF0400A03E59BF800706C2F1A
:1034A00003BF9BF801704AF0200A0BF1010B4AF0B0
:1034B000100AF6E49BF800704AF0080AF1E49BF861
:1034C00000704AF0010AECE49DF86B30002B7FF4A9
:1034D0006EAD9BF800708DF86B10E2E4FFFFEF7F9C
:1034E000D48B0008D88B0008E48B0008CDF80CA022
:1034F000012B00F0A181022B4EAD20D1149A04F0D3
:103500000F032409D35C05F8013D44EA067436092B
:1035100054EA0603F3D14EAB5B1BDDF80CA0079316
:10352000049907989DF86B3081424FF00002B8BFB4
:103530000146089203910C920F920D928CE604F0D2
:103540000703E40844EA4674F608303354EA0601F7
:103550002A4605F8013DF2D10399CC0700F17582A6
:103560004EAB5B1B8A460793DAE7652F40F3D780A3
:10357000DDE9100100220023FDF746FD002800F0E0
:10358000C681239BC14AC8F80020013301340122BF
:10359000072B24942393C8F8042000F3DE8408F159
:1035A00008081C9B0E9A934280F2D182129B139AB8
:1035B0001C44C8E90023239B24940133072B239345
:1035C00000F3228408F108080E9B5D1E002D7FF792
:1035D000D5AD102D239B41F36981AD4F0A9722464B
:1035E00010261AEE104A05E008F10808103D102DCB
:1035F00040F3C18401331032072BC8E90076CDE9CE
:103600002332F1DD22AA2146484603F045FE002878
:103610007FF422ADDDE923320DF19408E6E7059B46
:10362000039A9E1A002E7FF790AD102E239B41F334
:103630003F8097490B9522461AEE105A0A910C4684
:1036400004E0103E102E08F1080819DD0133103295
:103650001021072BCDE92332C8F80040C8F8041028
:10366000EFDD22AA294648460DF1940803F014FE26
:1036700000287FF4F1AC103E102EDDE92332E5DCAA
:103680000B9D144601330A9AC8F800203444072BD6
:10369000CDE92334C8F8046000F3A883049B079A9B
:1036A0009E1A002E08F108087FF755AD102E239BB7
:1036B00040F30F8576480A90424621461AEE108A5A
:1036C000044604E0103E102E02F1080216DD01331C
:1036D00010311020072BCDE9233114605060F1DD4B
:1036E00022AA4146484603F0D7FD00287FF4B4AC37
:1036F000103E102EDDE9233125AAE8DC90460C4669
:1037000001330A9AC8F800203444072BCDE923344A
:10371000C8F8046000F3D48108F108081BE50E9B8B
:10372000012B40F37381239EC8F800500136013409
:103730000123072E24942396C8F8043000F39683BF
:1037400008F10808129B139A01361C44072EC8E999
:103750000023CDE9236400F3978308F10808DDE92D
:10376000100100220023FDF74FFC002840F07B8170
:103770000E9B0136013B01351C44072EC8F8005052
:103780002396C8F80430249400F3518108F1080806
:10379000169BC8F8043001361C44072E1EABCDE939
:1037A0002364C8F800307FF7E7AC1AEE101A22AA9B
:1037B000484603F071FD00287FF44EAC249C0DF1C7
:1037C0009408DBE4102EDDE9233222DD1995102464
:1037D0001AEE105A04E0103E102E08F1080817DD0A
:1037E00001332C491032072BC8E90014CDE92332EC
:1037F000F1DD22AA294648460DF1940803F04CFD5C
:1038000000287FF429AC103E102EDDE92332E7DCDE
:10381000199DC8F804600133B418072B1D4AC8F875
:103820000020CDE9233400F37D839DF86B3008F14F
:10383000080860E4CDF80CA00A2C76F1000380F0B3
:10384000318330340123DDF80CA08DF83741079324
:103850000DF2371564E61AEE101A22AA484603F054
:103860001BFD00287FF4F8AB249C0DF1940855E46F
:103870001AEE101A22AA484603F00EFD00287FF423
:10388000EBAB249C0DF194085BE400BF148C0008A2
:10389000288C0008188C0008102D239B20DD1AEEC0
:1038A000107A102604E0103D102D08F1080817DDED
:1038B0000133AC4A1034072BC8E90026CDE9233484
:1038C000F1DD22AA394648460DF1940803F0E4FCE4
:1038D00000287FF4C1AB103D102DDDE92334E7DC77
:1038E0000133A04AC8F804502C44072BCDE92334F7
:1038F000C8F800207FF74BAC1AEE101A22AA4846EF
:1039000003F0CAFC00287FF4A7AB249C3FE41C9A78
:10391000002A40F32B81DDE90D739F42A8BF1F46AB
:10392000002F0BDD239B01333C44072BC8E90057D4
:103930002494239300F3D58508F108080D9E002FE9
:10394000A8BFF61B002E00F344830D9B1AF4806F72
:103950002B44079340F0E3841C9B0E9A934203DBB5
:103960001AF0010F00F0D283129A13991444C8E997
:103970000012239A24940132072A239200F3BF8570
:1039800008F108080E9A0799AE18761AD51AAE42B1
:10399000A8BF2E46002E0DDD239BC8F80010013372
:1039A0003444072BC8F804602494239300F3098659
:1039B00008F10808002EA8BFAD1B002D7FF7DEAB75
:1039C000102D239B40F37287674F0A9722461026DB
:1039D0001AEE104A05E008F10808103D102D40F3DA
:1039E000CA8201331032072BC8E90076CDE92332B1
:1039F000F1DD22AA2146484603F04EFC00287FF460
:103A00002BABDDE923320DF19408E6E71AF0010F44
:103A10007FF489AE239EC8F800500136013401239B
:103A2000072E24942396C8F804307FF7AFAE1AEE21
:103A3000101A22AA484603F02FFC00287FF40CAB92
:103A4000DDE923640DF19408A2E6302B3FF463AD69
:103A50003023023A05F8013C4EAB9B1ADDF80CA06E
:103A6000079315465CE50E9B5D1E002D7FF790AE1B
:103A7000102D40F321873C4ACDF810A023461AEEC2
:103A800010AA0A921027144605E008F10808103D14
:103A9000102D40F3E38201361033072EC8E90047AA
:103AA000CDE92363F1DD22AA5146484603F0F4FB39
:103AB00000287FF4D1AADDE923630DF19408E6E73D
:103AC0001AEE101A22AA484603F0E6FB00287FF4FB
:103AD000C3AA249C0DF19408FFF73DBB1AF0100314
:103AE00040F03D811AF0400200F0C882099A52F875
:103AF000044B09921E46A4B22FE4039B13F010035B
:103B000066D1039A12F0400200F0C682099A52F878
:103B1000044B09921E46A4B2012322E453F8044B3D
:103B200009931AF0100F4FD11AF0400F48D044F308
:103B3000C036334624B2FFF7BABB2D2364428DF85A
:103B40006B3066EB4606CDF80CA001230CE41AF0AE
:103B5000010F3FF413AB29E59BF800700993FFF7C1
:103B6000A0B900BF188C0008288C0008239BB64918
:103B7000C8F80010013301340121072B249423934A
:103B8000C8F8041000F3848408F10808002A40F003
:103B900046820E9A0AF0010313433FF4EFAA129BE8
:103BA000139A1C44C8E90023239B24940133072B58
:103BB000239300F3688308F1080841E24EADAFE4B7
:103BC0001AF4007F40F0AB82E6173346FFF76FBB75
:103BD000099B53F8044B09930123FFF7C2BBDDE9AE
:103BE000100102460B46FDF741FA002840F02E86F0
:103BF000612F00F07F85412F00F0A082049B0133EC
:103C000027F02003039300F0C085472B00F0AB851D
:103C1000DDE910014AF48072002907924FF0000399
:103C2000C0F2458441EC180B0A930893039B462B82
:103C300000F07484452B00F02585B0EE480AF0EEC4
:103C4000680A20AB01931DAB0093049A1CAB0221C0
:103C5000484600F0C9FF039B472B054640F05E86AF
:103C60001AF0010F5646DDF81CA040F0E384209BBB
:103C70005B1B0E93039B472B00F01B83039B462B80
:103C800000F089841C9B0D930D9B039A013B412AF4
:103C90001C9300F0E985FAB20021002BB8BF0D9B00
:103CA0008DF87820BABFC3F101032D222B22092BF6
:103CB0008DF8792040F36D850DF18704DFF898C108
:103CC000224610468CFB0321DA17C2EBA10202EB5D
:103CD0008201A3EB4101303100F8011C1946632930
:103CE000134600F1FF32ECDC3033D9B2831E9C4224
:103CF00002F8011C40F20E8613460DF17A0201E033
:103D000013F8011B02F8011B9C42F9D10DF1890344
:103D10000DF17A021B1A13441EAA9B1A16930E9BCE
:103D2000169A012B1A44079240F3B285079B129A08
:103D300013440793079A002326F4806622EAE2726E
:103D400046F4807A0C9303920F930D930A9B002BF9
:103D500040F0DE8204939DF86B30FFF77DBA099B3B
:103D600053F8044B0993FFF7F8BA099B069853F8E8
:103D7000041B0993C217C1E900025D46FFF71DBA93
:103D8000159B002B3FF413A9159B1B78002B3FF4C8
:103D90000EA99BF800704AF4806AFFF782B8CDF84C
:103DA0000CA0FFF74CBB294B14931AF0200655D0FA
:103DB000099B073323F007035E6853F8084B099308
:103DC0001AF0010F09D054EA060306D030238DF80B
:103DD0006D704AF0020A8DF86C302AF48063039308
:103DE0000223FFF7BEBA1A4B1493DEE71AEE101A3D
:103DF00022AA484603F050FA00287FF42DA9249CFB
:103E00000DF19408FFF7A1B91AEE101A22AA48463C
:103E100003F042FA00287FF41FA9249C0DF19408B6
:103E2000FFF7D2BB049A0895062A294628BF062226
:103E300004952B460392074D099407920C910F911C
:103E40000D91FFF709BA00BF148C0008E48B00083D
:103E5000F88B00080C8C0008676666661AF0100381
:103E600070D0099B53F8044B0993A9E71AEE101A76
:103E700022AA484603F010FA00287FF4EDA8DDE9F5
:103E800023640DF194085DE41AEE101A22AA484644
:103E900003F002FA00287FF4DFA8DDE923640DF1C6
:103EA00094085CE4039B002203F48063CDE9077867
:103EB00009EE109A0DF59C7ADDF854901746984655
:103EC0000CE00023204631460A22FCF799F90A2C1F
:103ED00076F100031CD304460E46AA4620460A2269
:103EE00000233146FCF78CF930320AF1FF350137F7
:103EF0000AF8012CB8F1000FE3D099F800309F4286
:103F0000DFD1FF2FDDD00A2C76F1000380F0E580B1
:103F1000CDF854900E97DDF82080079F19EE109A87
:103F2000FFF7F9BA1AEE101A22AA484603F0B4F9BC
:103F300000287FF491A89DF86B30249C0DF1940823
:103F4000FFF7D9B81AF0400200F0B680099A52F88B
:103F5000044B09921E46A4B232E71AEE101A22AAA6
:103F6000484603F099F900287FF476A8249C0DF1C7
:103F70009408FFF716BB144601330A9AC8F80020CC
:103F80002C44072BC8F80450CDE923347FF7F4A85C
:103F90000BE4012BCDF80CA07FF4ADAA51E4099BF2
:103FA000069953F8042B5D4611600993FFF705B994
:103FB000284604960994FCF743FB20EAE0719DF83B
:103FC0006B300790039108960C960F960D96FFF7AD
:103FD00043B9102E239B40F39684BC480A90424676
:103FE00021461AEE108A1027044604E00832103EDB
:103FF000102E40F33B8201331031072BC2E90047FA
:10400000CDE92331F2DD22AA4146484603F044F9C6
:1040100000287FF421A8DDE9233125AAE7E7129BD8
:1040200013991C44C8E90013239B24940133072BE4
:10403000239300F3288108F10808002AC0F2FD82CA
:104040000E9AC8F8005001331444072BCDE92334ED
:10405000C8F804207FF790A8FFF7A7BBDDF810A0F1
:104060001C4601360A9BC8F800302C44072ECDE9C7
:104070002364C8F804507FF789ABD8E4099B1AF48D
:10408000007614BF53F8044B53F8044B09931CBF3C
:104090001646E4B2FFF761B9039B13F40076099B5F
:1040A00014BF53F8044B53F8044B09931CBF164636
:1040B000E4B20123FFF755B9099B1AF4007614BF47
:1040C00053F8044B53F8044B09931CBF1646E4B253
:1040D00076E67E4A0A92FFF713BB189B1799ED1AF2
:1040E0001A462846FEF734FE99F801300BB109F163
:1040F0000109204631460A2200230027FCF780F8F8
:10410000E9E62D238DF86B30FFF796B80E9A0799E4
:10411000AE18761AD51AAE42A8BF2E464AE444F32A
:10412000C016334664B2FFF7C2B8099B069953F82C
:10413000042B099311805D46FFF73FB830238DF8BB
:104140006C3058238DF86D30049B632B4AF00204C9
:1041500000F3D5820023089335ADDDE910124AF44F
:1041600081730793002A27F02003A2460393C0F22D
:104170009F81002342EC181B0A93612F00F04A83B1
:10418000412F7FF453ADB0EE480AF0EE680A1CA848
:1041900002F0CAFF00224FF07F5351EC100BFCF7E6
:1041A000CBFC02460B4643EC192B00220023FCF704
:1041B0002BFF08B101231C93454B0B93049B1995CE
:1041C000CDE90C7BCDE90EA80CEE109ADDF82CB0F1
:1041D00059EC198B5E1E2C4605E000220023013E9F
:1041E000FCF712FFE0B93B4B002240464946FCF782
:1041F000A3FC89468046FCF74FFF0546FCF732FCDE
:104200000B46024649464046FCF7DEFA1BF80530ED
:10421000A24604F8013B731C374680468946DCD130
:1042200049EC198B2C4BDDF83C8051EC190B00222A
:104230003E461CEE109ADDE90C7BCDF830A00D95C2
:10424000DDF838A0199DFCF707FF002840F0368202
:1042500051EC190B204B0022FCF7D6FE18B10D9B38
:10426000D90700F12B82002E334606DB01332344AD
:10427000302204F8012BA342FBD1631B56460E9358
:10428000DDF81CA0F6E41AEE101A22AA484603F044
:1042900003F800287EF4E0AEDDE923341C9A0DF12A
:1042A0009408CAE61AEE103A986D02F0ABF8FEF7E1
:1042B0009FBE1C9B0D93DA1C02DB049A93420DDD1A
:1042C000023F27F020030393DEE400BF288C0008A0
:1042D000F88B0008000030400000E03FDDE90D32BF
:1042E0009342C0F27F81F00740F19182129A134409
:1042F0000793710503D50D9B002B00F35A82079B92
:1043000023EAE3730393672700230C930F931DE5C0
:104310002D2300228DF86B300492FEF7A0BF0E9B78
:10432000CDF828B0DDF83CB0079E159FCDF81CA055
:10433000EB1804934246DDF860A00C9B0B951AEE37
:10434000108AA446BBF1000F30D0002B71D1013F81
:104350000BF1FF3B179BC2E9003A239B0133D44486
:10436000072BCDF890C0239367DC0832049B387884
:104370009B1B8342A8BF0346002B1C460BDD2398E2
:1043800001309C440728C2E90063CDF890C0239017
:104390005FDC38780832002CACBF051B0546002DC9
:1043A00017DC06440C9BBBF1000FCED1002B40D193
:1043B0000B9D0E9BDDF81CA0DDF828B01597EB18BF
:1043C0009E429046324628BF1A4664460792FFF73F
:1043D000C3BA102D23981FDD1024634604E0103D5E
:1043E000102D02F1080216DD0130B3491033072801
:1043F000C2E90014CDE92303F1DD22AA4146484673
:1044000002F04AFF00287EF427AE103D102DDDE9B2
:10441000230325AAE8DC9C460130A74B5560AC4439
:104420000728CDE9230C13604DDC387808320644A8
:10443000B8E70C9B013B0C938CE722AA4146484607
:1044400002F02AFF00287EF407AEDDF890C025AA0E
:104450008CE722AA4146484602F01EFF00287EF45F
:10446000FBAD3878DDF890C025AA94E790460C465D
:1044700001330A9AC8F800203444072BCDE92334CD
:10448000C8F8046000F3618108F10808FFF75DBA1D
:104490001AEE101A22AA484602F0FEFE00287EF408
:1044A000DBAD1C9A249C0DF19408FFF76FBB0893B9
:1044B000DDE9103408EE103A04F1004308EE903ABA
:1044C0002D230A9359E622AA4146484602F0E4FE0B
:1044D00000287EF4C1AD3878DDF890C025AA0644E6
:1044E00060E71AEE101A22AA484602F0D5FE00280C
:1044F0007EF4B2AD249C0DF19408FFF71FBA1AEEBA
:10450000101A22AA484602F0C7FE00287EF4A4AD85
:104510001C9B249C0DF19408FFF734BA20AB019347
:104520001DAB0093049AB0EE480AF0EE680A1CAB8B
:104530000321484600F058FB0378302B054600F075
:1045400099811C9B049A56461344DDF81CA0EC1874
:1045500051EC180B00220023FCF756FD10B1234646
:10456000FFF786BB209BA342BFF482AB30215A1CCD
:1045700020921970209B9C42F9D8FFF779BB049BCD
:104580000393079309949DF86B3004900C900F905F
:104590000D90FEF761BE1C9A0D92002A40F39081A7
:1045A000049906F001030B4340F02B810D9B079308
:1045B0006627730500F1FE80079B23EAE3730393EC
:1045C000A2E61AEE101A22AA484602F065FE00285A
:1045D0007EF442AD1C9D0E9B249C5D1B0DF1940846
:1045E000FFF7E8B90E9B129A9A180D9B0792002BC1
:1045F00040F353816727DCE700230493FEF753BCA5
:104600001AEE101A1AEE900A22AA02F045FE0028AD
:104610003EF4DBADFEF727BD6B6EDC0705D4AB893E
:10462000980502D4A86D01F0EDFE4FF0FF3306931C
:10463000FEF723BD049BEC188AE75642103280F245
:104640006F811D480A90424621461AEE108A1027B3
:10465000044603E00832103E102E5ADD01331031BB
:10466000072BC2E90047CDE92331F3DD22AA4146F9
:10467000484602F011FE00287EF4EEACDDE923315D
:1046800025AAE8E7049BB0EE480AF0EE680A5C1C35
:1046900020AB01931DAB009322461CAB0221484680
:1046A00000F0A2FA054656462C44DDF81CA04FE760
:1046B000014A0A92FEF7E6BF288C00080C9B209363
:1046C0000B9B14F8012CD97B8A42234609D1302058
:1046D00003F8010C209B5A1E209213F8012C9142E2
:1046E000F6D0392A0BBF0B9A0132927AD2B203F874
:1046F000012CC2E530238DF86C30782322E5591C5B
:104700004846FDF79BFF0546002800F00C81089005
:1047100023E590460C4601330A9AC8F80020344439
:10472000072BCDE92334C8F804607FF744AA1AEEBA
:10473000101A22AA484602F0AFFD00287EF48CAC85
:10474000DDE923340DF194087AE41AEE101A22AA56
:10475000484602F0A1FD00287EF47EAC249C0DF1B9
:104760009408FFF7F2B8049B002B08BF01230493C1
:10477000119B4AF48072002B0792C0F29B809DED42
:10478000108B0A900890FFF758BA06230493FFF79E
:104790003FBA002940F0A88030228DF87A200DF130
:1047A0007B02303302F8013B1EABD31A1693FFF79E
:1047B000B6BA672715990B78FF2B00F0A780002465
:1047C0000D9A204603E001300131FF2B08D09342BF
:1047D00006DAD21A4B78002BF5D10B780134F4E7C6
:1047E00015910D920F900C940C9A0F9B18991344ED
:1047F000079A01FB0323079323EAE3730393FFF76D
:10480000A5BA129BD318194407916627D1E60D9BD0
:1048100007936EE51CA8B0EE480AF0EE680A02F0B5
:1048200083FC00224FF07F5351EC100BFCF784F90E
:1048300002460B4643EC192B00220023FCF7E4FB55
:1048400008B101231C933C4B0B93B7E4119B3B4DE8
:104850003B4A002BB6BF2D239DF86B308DF86B3093
:104860002AF0800AFEF7ECBC07F10F02D2B2012158
:10487000FFF713BA51EC180B00220023FCF7C4FB1E
:1048800000287FF45EAE049BC3F101031C9359E63C
:10489000F4077FF54FAAFFF749BAC3F101031A44A1
:1048A00022EAE2730792039367272DE5254A0A92CD
:1048B000FFF762BB0890FBE5224B0A93FFF7D1BBE1
:1048C000049A06F0010656EA020304D10123039379
:1048D0006627079318E5129B01331A4422EAE27314
:1048E0000792039366270FE50DF17A0259E7099BBA
:1048F0009BF80170934653F8042B099342EAE27245
:104900000492FEF7CEBA0F4A0A92B1E500230C9347
:104910000F9369E702231693FFF701BA049CC2E6DE
:10492000084A0A92F7E61AEE102A938943F04003E8
:104930009381FEF798BB00BFE48B0008DC8B000876
:10494000E08B0008288C000870B50C468989ADF50D
:104950008E6D21F00201ADF81410616E1B91E1899A
:10496000ADF81610E1690991616A0B911CA90291D9
:1049700006914FF4806106460491079118A8002122
:10498000CDE90032089101F037FDDDE9003202A9DE
:104990003046FEF711FA051E07DB02A9304601F08A
:1049A00059F9002818BF4FF0FF35BDF814305B06E9
:1049B00003D5A38943F04003A381189801F01EFD9D
:1049C00028460DF58E6D70BD38B5334B1B68054616
:1049D0000C460BB19A6B12B3B4F90C3018079AB2AB
:1049E00025D5216900292DD012F0010007D0002023
:1049F000A06060694042A06139B1002038BD9507D0
:104A000058BF6069A0600029F7D1120658BF084658
:104A1000F4D543F04003A3814FF0FF3038BD184672
:104A200001F04CF9B4F90C3018079AB2D9D4D10678
:104A30002AD5520714D4216943F00803A3819AB2FE
:104A40000029D1D102F42070B0F5007FCCD02146EE
:104A5000284601F0D9FCB4F90C3021699AB2C3E7B9
:104A6000216B51B104F14002914204D0284601F07B
:104A70001DFAB4F90C300022226321690022C4E936
:104A8000001223F02403D7E7092243F040032A60F1
:104A90004FF0FF30A38138BD00000020024B13B15E
:104AA000024800F005B8704700000000E15D000812
:104AB000002301461A46184603F04EBB2DE9F04F7D
:104AC00003690C69A34283B0C0F28780013C01F105
:104AD0001405A30000F11408009355F8243058F889
:104AE0002420013381469A4208EB840005EB8407B9
:104AF0000190B2FBF3F63BD30023AE4640469B4603
:104B00005EF804AB02681FFA8AFC06FB0C334FEA1E
:104B1000134C4FEA1A4A06FB0ACA1FFA83FCABEB96
:104B20000C0C1FFA8AF31CFA82FCC3EB124202EB54
:104B30002C421FFA8CFC4CEA0243774540F8043BB8
:104B40004FEA224B4FEA1A43DAD2009B58F803305F
:104B500073B9019B043B984504D307E0984504F1E1
:104B6000FF3403D253F80429002AF7D0C9F81040C3
:104B7000484601F0BDFF00282BDB013640460023EC
:104B800055F8041BD0F800C08AB29A1A0B0C12FA1E
:104B90008CF2C3EB1C4303EB224392B242EA034282
:104BA000AF4240F8042B4FEA2343E9D258F82420BF
:104BB00008EB84036AB9043B984504D307E09845A1
:104BC00004F1FF3403D253F80429002AF7D0C9F8BE
:104BD0001040304603B0BDE8F08F002003B0BDE8C0
:104BE000F08F00BF000000002DE9F04F2DED068B87
:104BF00095B08DED020B0191016C249D099259EC49
:104C0000108B0446069341B1426C4A6001239340E5
:104C10008B6001F00BFD00232364B9F1000AB4BFDF
:104C2000012300232B607C4BBCBF2AF0004ACDF847
:104C30000CA033EA0A0300F0B2809DED027B002253
:104C400051EC170BB0EE479AF0EE679A0023FCF791
:104C5000DBF9074680B1069A01231360259B002BE0
:104C600000F0DB826D481860431E0093009815B079
:104C7000BDEC068BBDE8F08F12AA13A92046B0EE5A
:104C8000490AF0EE690A01F0FBFFB0EE498AF0EE46
:104C9000698A5FEA1A56054640F09980DDE9127686
:104CA0003E4406F23240202840F3AB83C0F140007E
:104CB0000AFA00FA06F2124028FA00F04AEA000066
:104CC000FBF7C0FE0123013E0D93A1F1F871544B97
:104CD0000022FBF779FD4AA3D3E90023FBF72CFF61
:104CE00049A3D3E90023FBF771FD8046304689468E
:104CF000FBF7B8FE46A3D3E90023FBF71DFF0246EE
:104D00000B4640464946FBF761FD80468946FCF765
:104D1000C3F900228346002340464946FCF77EF94A
:104D2000002840F06D82BBF1160F00F25C823D4B13
:104D300003EBCB03D3E9002351EC190BFCF76EF91D
:104D4000002875D00023BE1B0C93731E0BF1FF3B94
:104D5000049300F14F8200230893BBF1000F6EDA39
:104D6000089BCDF814B0A3EB0B030893CBF1000321
:104D70000B93019B092B4FF0000B69D8052B40F3D7
:104D80003E83043B01930026019B023B032B00F270
:104D90009986DFE813F04E044B0443042604069A78
:104DA00042F20F73CAF3130A13605AEA08031DD1C3
:104DB000259B002B00F07D861B4B00930833259A22
:104DC0000098136015B0BDEC068BBDE8F08F18EEAF
:104DD000903AC3F3130351EC190B43F07F510D9735
:104DE000A6F2FF36129F41F4401170E7259B002B7D
:104DF00040F0DB830D4B009338E700BFAFF300803A
:104E000061436F63A787D23FB3C8608B288AC63FD0
:104E1000FB799F501344D33F0000F07F158C0008AE
:104E20000000F83F888D00083C8C0008388C000892
:104E3000BE1B731E049300F19A840C900890049B8F
:104E40005B44CDE9043B00230B93019B092B95D9CF
:104E5000002301264FF0FF3201930A96079209932F
:104E6000079B0F9300216164204601F0B9FB00907D
:104E7000002800F02F86009B2364079B0E2B00F276
:104E8000F980002E00F0F6800599002940F3718426
:104E9000BD4B01F00F0203EBC2034FEA2118C90515
:104EA000D3E9006740F10384B84B51EC190BD3E907
:104EB0000823FBF76BFF41EC180B08F00F084FF0CD
:104EC000030AB8F1000F13D0DFF8C09218F0010FF9
:104ED00009D030463946D9E90023FBF72DFE0AF107
:104EE000010A06460F465FEA680809F10809EDD194
:104EF00051EC180B32463B46FBF748FF41EC1A0BCE
:104F00000C9B5BB157EC1A6BA14B1AEE100A0022F6
:104F10003946FCF783F8002840F052855046FBF7ED
:104F2000A1FD53EC1A2BFBF707FE9A4B0022FBF76F
:104F30004DFC079B8046A1F15079002B00F0F383D4
:104F4000059B1093079B0E930A9B002B00F0C084D7
:104F50000E9A8D4B9049DDF800A003EBC20353E994
:104F600002230020FBF712FF42464B46FBF72CFCC6
:104F700059EC1A8B41EC180B49461AEE100AFCF753
:104F80008BF80746FBF76EFD02460B461AEE100A39
:104F90004946FBF719FC30370AF8017B53EC182B14
:104FA00006460F46FCF73AF8002840F055854FF0CA
:104FB00000080AEE105ACDF844B055465BEC18AB29
:104FC00008EE104A44462AE00E9B01349C424BDA1C
:104FD000724B504659460022FBF7AEFD6F4B002244
:104FE00082468B4630463946FBF7A6FD8946804609
:104FF000FCF752F80746FBF735FD02460B464046E4
:105000004946FBF7E1FB303705F8017B52465B462A
:1050100006460F46FCF702F8002840F01885324695
:105020003B465B490020FBF7CFFB52465B46FBF754
:10503000F5FF0028C8D0109B009A0593AA4618EEE9
:10504000104A1AEE105A02E0924500F0EA84D14666
:105050001AF8013D392BF7D00133DBB28AF8003062
:10506000059B01330593ABE1DDF844B01AEE105A0D
:1050700018EE104A139B002BC0F29480059A0E2A5A
:1050800000F39080404B03EBC203D3E90089099BF6
:10509000002B1BDA079B002B18DC40F05D83404B94
:1050A000002240464946FBF747FD02460B4651ECBD
:1050B000190BFBF7BDFFDDF81CA05646002800F0D9
:1050C000D082099BDDF80080DF43D2E242464B46A6
:1050D00051EC190BFBF75AFEFBF7DEFF0646834641
:1050E000FBF7C0FC42464B46FBF726FD0B4602464B
:1050F00051EC190BFBF768FBDDF800A033463033A9
:105100000AF8013B079B012B00F08E834FF0010B47
:1051100008EE105A08EE904A1D465446DA461DE045
:1051200042464B4630463946FBF730FEFBF7B4FFAC
:105130008346FBF797FC42464B46FBF7FDFC0AF122
:10514000010A0B46024639463046FBF73DFB0BF1A0
:105150003003AA4504F8013B00F061830F4B0022A5
:10516000FBF7EAFC0022002306460F46FBF74CFF44
:105170000028D5D0A24618EE105A18EE904A059B8A
:1051800001330593D1461BE1888D0008608D00082E
:105190000000F03F00001C400000E03F0000244001
:1051A000000014400A9A002A3FD0019A012A40F3D5
:1051B0009C82079B03F1FF380B9B4345C0F26E8234
:1051C000A3EB0808079B002BC0F26683049A1A44DD
:1051D0000492089A17461A4408920121204601F0C9
:1051E000D3FA064625E00123BE1B0C93731E0493DD
:1051F0007FF5B1ADC6F10103089300230493ACE53C
:105200005846FBF72FFC42464B46FBF7FDFE0028B5
:105210007FF489AD0BF1FF3B85E5874B0093009848
:1052200015B0BDEC068BBDE8F08FDDF82C80089F33
:105230000A9E002F0CDD049A002A09DD0899BA4263
:105240001346A8BF3B46C91AFF1AD31A0891049304
:105250000B9BDBB10A9B002B00F08282B8F1000FA0
:105260000FDD31464246204601F06AFB2A460146E0
:105270000646204601F0B6FA29460546204601F0CA
:10528000D5F90B9BB3EB080240F0008301212046C7
:1052900001F07AFABBF1000F824600F3B780019B60
:1052A000012B40F386814FF000080120BBF1000F75
:1052B00040F0B880049A104410F01F0000F096806F
:1052C000C0F12003042B40F3F883089BC0F11C00BD
:1052D00003440244089307440492089B002B05DD15
:1052E00029461A46204601F08BFB0546049B002BFD
:1052F00005DD51461A46204601F082FB82460C9B92
:10530000002B40F03781079B002B40F31E810A9B46
:10531000002B40F0A180059B01330593DDF8008050
:10532000DDF81C90012707E0294600230A222046C9
:1053300001F086F90137054651462846FFF7BEFBC6
:105340004F4500F1300008F8010BEDDB079A002A09
:10535000C8BF9346009AD8BF4FF0010B0346934451
:105360000027294601222046019301F049FB5146BE
:10537000054601F0BDFB002840F3A5811BF8013C68
:10538000009A0BF1FF3B04E05A4500F0A7811BF89F
:10539000013D392B0BF10109F6D001338BF80030B8
:1053A0005146204601F042F956B12FB1B74203D021
:1053B0003946204601F03AF93146204601F036F9E7
:1053C0002946204601F032F9002389F80030DDE952
:1053D00005231A60259B002B3FF448AC0098C3F8C6
:1053E000009015B0BDEC068BBDE8F08F1C20089B2B
:1053F00003440893049B0344074404936DE7012688
:10540000C2E4C0F1200008FA00F059E401465A460F
:10541000204601F095FA019B012B824640F3D5818D
:105420004FF00008DAF810300AEB8303186901F036
:105430005BF9C0F120003DE7148C000831460023E1
:105440000A22204601F0FCF80F9B002B064640F391
:105450002383CDF814900793002F00F31881B8F13F
:10546000000F40F0FC81B046029B009F079903F0BB
:1054700001027B1E1944019B0A9213430891099370
:1054800051462846FFF71AFB31468346284601F06D
:105490002FFB424651468146204601F04BFBC26835
:1054A00001460BF13003002A42D1049028460793AD
:1054B00001F01EFB04990290204601F0B7F8029A11
:1054C000079B1AB90999002900F0D682B9F1000F9B
:1054D000C0F28781019949EA01090A9951EA090153
:1054E00000F07F81002A00F3E781089A3B7007F102
:1054F00001099742CB4600F0E581294600230A22A4
:10550000204601F09DF84645054631464FF0000320
:105510004FF00A02204612D001F092F841460646AA
:1055200000230A22204601F08BF84F468046A7E769
:105530002046029301F07AF8029B0122C6E701F0AF
:105540007FF84F46064680469AE7019B022B77DCA0
:105550000A9B002B80D1059B5146013328460593B9
:10556000FFF7ACFADDF800B000F130030BF8013BB7
:105570000027F6E65146284601F0BAFA0028BFF6A1
:10558000C2AE294600230A22204601F059F8059BA5
:1055900003F1FF390A9B0546002B7FF44FAF0F9BA9
:1055A000002B40F370820793B8E6BD4B00930333A2
:1055B00005E4DDE9021200297FF475AEC2F313039E
:1055C000002B7FF470AEB74B1340002B00F03D82F0
:1055D000089B01330893049B013304934FF00108A7
:1055E00063E601230A93099B059A13440F93013341
:1055F000012B1F460793B8BF01270021172F6164B5
:105600007FF732AC012204235B0003F11400B8429F
:10561000114602F10102F7D9616425E401230A93DE
:10562000099F002F4ADD0F970797E6E700230A93AB
:10563000D9E700230A93F3E70F9BCDF81490079363
:10564000079B002B7FF43DAD51460522204600F01C
:10565000F7FF01468246284601F04AFA00287FF704
:1056600030AD0098059F3123804600F8013B01379B
:1056700000905146204600F0D9FF7B1CDDF80090D9
:105680000593CDF80080002E7FF496AE98E6314663
:105690003A46204601F0B4F90646E0E60B9BCDF809
:1056A0002C80A8EB03039B444FF000088AE54FF0E1
:1056B000020AB0EE498AF0EE698A02E401230993F6
:1056C0000793FFF7CDBB03D1019BDB073FF556AE38
:1056D000D9461BF8013D302BFAD061E6059B009AB4
:1056E00001330593312313705AE60D9A002A00F016
:1056F000638103F23343049ADDF82C801A44049248
:10570000089A17461A44089267E55046FBF7AAF92B
:1057100053EC1A2BFBF710FA634B0022FBF756F8F9
:105720008046A1F15079614B002251EC1A0BFBF736
:105730004BF842464B4606460F46FBF78DFC0028C9
:1057400040F07F8130463946424609F10043FBF77D
:1057500065FC00283FF48EAC4FF0000A5646B0E4DA
:1057600029460B9A204601F0EBF805468EE50C9091
:1057700040E500F04E81059A4D4B564206F00F026F
:1057800003EBC203D3E9002351EC190BFBF7D4F967
:10579000361141EC1A0B00F08881464F00234FF080
:1057A000020AF20706D5D7E90023FBF7C5F90AF18B
:1057B000010A0123761007F10807F2D1002B3FF40C
:1057C0009FAB41EC1A0BFFF79BBB029B002B7FF4B6
:1057D00027AEDDE90212C2F31303002B3FF4F3AE50
:1057E0001EE6002A12DD294601222046019301F01F
:1057F00007F95146054601F07BF90028019B40F36B
:105800003581392B00F013810BF13103B94609F8CA
:10581000013B059B0133374605934646C0E5A2464A
:1058200018EE105A18EE904A02460B46FAF7CEFFD1
:1058300042464B4606460F46FBF70EFC60B9424611
:105840004B4630463946FBF7DFFB00283FF497AC68
:105850005FEACB717FF593AC009AFFF7F8BB7168F4
:10586000204600F0BDFE0746002800F03A8133696B
:1058700002339A0006F10C010C30FAF743FE394668
:105880000122204601F0BCF88046EDE5294620467D
:1058900001F056F80546F9E4DDE907239F1A9CE478
:1058A000388C00080000F07F00001C40000014400D
:1058B000888D0008608D0008392B00F0B880B9464B
:1058C0000133A4E7059A013237460592464648E57A
:1058D0000E988D4901EBC00142464B4651E9020149
:1058E000FBF72AF95AEC1A9B41EC180B51461AEEB9
:1058F000100AFBF7D1FB0746FBF7B4F802460B464C
:105900001AEE100A5146FAF75FFF06460E98DDF8C8
:1059100000803037012808F8017B0F4600F0BA807C
:105920000E9B009ACDF838B013449B46C246774B85
:10593000002230463946FBF7FFF889468046FBF7E0
:10594000ABFB0746FBF78EF8303702460B46404666
:105950004946FAF739FF0AF8017BDA4506460F4651
:10596000E5D1DA46DDF838B0694B59EC188B0022E6
:1059700018EE100A4946FAF729FF32463B46FBF774
:105980004DFB00286DD118EE102A4B4660490020CF
:10599000FAF71AFF32463B46FBF75EFB00283FF45E
:1059A00069ABD1460AF1FF3A19F8013C302BF8D027
:1059B000109B0133059303E5129BC3F136039AE66E
:1059C000079B002B3FF4A1AE0F9B002B7FF752AB40
:1059D000059A0E93013A4D4B10921AEE100A394671
:1059E0000022FBF7A9F8024616460F460AF101000D
:1059F000FBF738F832463B46FBF79EF8454B002252
:105A0000FAF7E4FE47EC1A6B8046A1F15079FFF7F4
:105A10009BBA4FF0020AB0EE49AAF0EE69AAFFF76E
:105A20006FBA059B013305933123FFF717BB059B25
:105A3000BB4601330593392337460BF8013B4646F5
:105A40009EE44FF0000A56460BE698462DE4AA461F
:105A500018EE104A1AEE105A109B01330593D146E6
:105A6000AEE4109B009A0593FFF7F1BA7FF4CEAE37
:105A7000DA077FF5CBAEC4E6392BD8D0B9F1000FE9
:105A80003FF7C2AEC2E6019B022B3FF7D5ADCDF882
:105A9000149060E5C24667E7019B022B3FF7CCAD4F
:105AA0000F9BCDF814900793D6E44FF0020AFFF74E
:105AB00027BA194B0093FFF7D9B83FF40EACC0F1E9
:105AC0003C0094E4002666643146204600F088FDE0
:105AD000009068B9114B124800224FF4D57102F0C2
:105AE00081FB0E4B0E483A4640F2EA2102F07AFB67
:105AF000009B236401224FF0FF3309960F930A9213
:105B00000793FFF7B7BA00BF888D00080000244054
